:020000040800F2
:10000000008000207514000805140008071400087B
:1000100009140008C5140008C514000800000000F9
:100020000000000000000000000000000B140008A9
:100030000D140008000000000F140008111400083F
:10004000C5140008C5140008C5140008C51400082C
:10005000C5140008C5140008C5140008C51400081C
:10006000C5140008C5140008C5140008C51400080C
:10007000C5140008C5140008C5140008C5140008FC
:10008000C514000800000000C5140008C5140008CD
:10009000C5140008C5140008C5140008C5140008DC
:1000A000C514000819140008C5140008C514000878
:1000B000C5140008C5140008C5140008C5140008BC
:1000C000C5140008C5140008C5140008C5140008AC
:1000D000C5140008C5140008C5140008C51400089C
:1000E000C5140008C5140008C5140008C51400088C
:1000F000C5140008C5140008C5140008000000005D
:1001000000000000C514000800000000C51400082D
:10011000C514000800000000C5140008C51400083C
:10012000C5140008C5140008C5140008C51400084B
:10013000C51400080000000000000000C5140008FD
:10014000C5140008C51400080000000000000000ED
:10015000000000000000000000000000000000009F
:10016000000000000000000000000000C5140008AE
:10017000C51400080000000000000000000000009E
:1001800000000000C514000800000000000000008E
:10019000000000000000000000000000000000005F
:1001A0000000000000000000C5140008C51400088D
:1001B000C5140008C5140008C5140008000000009C
:1001C00000000000C514000800000000000000004E
:0801D000C5140008C514000865
:1001D80010B5054C237833B9044B13B10448AFF379
:1001E80000800123237010BD0C00002000000000D7
:1001F8002015000808B5034B1BB103490348AFF3AA
:10020800008008BD00000000100000202015000834
:10021800104B1B680BB90120704710B504464FF40A
:100228007A70B0FBF3F30C4A1068B0FBF3F000F0FF
:100238008BF868B90F2C01D901200AE00022214669
:100248004FF0FF3000F03EF8024B5C60002000E009
:10025800012010BD000000200800002010B5032078
:1002680000F01EF80020FFF7D3FF10B1012420464C
:1002780010BD044601F086F8F9E70000034A136848
:10028800034909680B441360704700BF2C00002025
:1002980000000020014B1868704700BF2C000020A8
:1002A800074AD36823F4E0631B041B0C000200F424
:1002B800E060034343F0BF6343F40033D360704707
:1002C80000ED00E030B4174BDB68C3F30223C3F141
:1002D8000704042C28BF04241D1D062D18D9033B30
:1002E8004FF0FF3505FA04F421EA0401994005FAB4
:1002F80003F322EA0303194300280BDB0901C9B2FF
:1003080000F1604000F5614080F8001330BC704790
:100318000023E5E700F00F000901C9B2024B1954A8
:10032800F4E700BF00ED00E014ED00E0002807DB73
:1003380000F01F02400901239340024A42F820308E
:10034800704700BF00E100E00138B0F1807F0AD2B9
:10035800064B5860064AF02182F823100020986066
:1003680007221A6070470120704700BF10E000E0C4
:1003780000ED00E0F0B583B0002336E0052400E08E
:100388000024B4403C4302355F4E46F825405F4C9C
:100398002568D44325EA02064F6817F4803F01D048
:1003A80042EA0506594D2E606D6804EA05064F6855
:1003B80017F4003F01D042EA0506544D6E60AD685F
:1003C80004EA05064F6817F4801F01D042EA0506C3
:1003D8004E4DAE60ED682C404E6816F4001F01D0FB
:1003E80042EA0504494AD46001330A6832FA03F440
:1003F80000F0878001249C402240F5D04D686E1E95
:10040800012E03D9112D01D0122D12D186685F005B
:100418000325BD4026EA0506CD68BD403543856005
:10042800466826EA04064D68C5F300149C40344328
:100438004460C7685E000325B540EC4327EA05071A
:100448008D68B5403D43C5604D68022D01D0122D21
:1004580013D1DF08083750F827E003F007054FEA03
:10046800850C0F2505FA0CF52EEA050E0D6905FA1F
:100478000CF545EA0E0540F82750056825404C68FC
:1004880004F00304B4402C4304604C6814F0805F0B
:10049800AAD01F4C256E45F001052566246E04F090
:1004A80001040194019C9D08AE1C174C54F8267059
:1004B80003F00304A6000F24B44027EA0407B0F1B0
:1004C800904F3FF45DAF134CA04212D004F5806406
:1004D800A04210D004F58064A0420ED004F58064D8
:1004E800A0420CD004F58064A0423FF447AF062434
:1004F80047E7012445E7022443E7032441E70424AE
:100508003FE703B0F0BD00BF000001400004014018
:1005180000100240000400480369194201D001207C
:100528007047002070470AB1816170478162704747
:10053800002836D13E4B1B6803F4C063B3F5806FC7
:1005480008D03B4AD2F8803023F48073C2F8803058
:1005580000207047364AD2F8803023F48073C2F8FE
:100568008030136823F4C06343F400731360314B85
:100578001A68322303FB02F32F4AA2FB03239B0CC6
:10058800013300E0013B2A4A526912F4806F01D01E
:10059800002BF7D1264B5B6913F4806F44D1002000
:1005A8007047B0F5007F08D0214A136823F4C06370
:1005B80043F480631360002070471D4B1B6803F4ED
:1005C800C063B3F5806F08D0194AD2F8803043F47D
:1005D8008073C2F8803000207047154AD2F8803006
:1005E80043F48073C2F88030136823F4C06343F483
:1005F800007313600F4B1A68322303FB02F30E4A91
:10060800A2FB03239B0C013300E0013B084A52691B
:1006180012F4806F01D0002BF7D1054B5B6913F4FE
:10062800806F03D100207047032070470320704774
:10063800007000400800002083DE1B43024A9368D4
:1006480043F480439360704700700040124AD368B7
:1006580003F00303D068C0F303100130032B11D05B
:100668000E4BB3FBF0F30C4AD068C0F3062000FB36
:1006780003F0094BDB68C3F3416301335B00B0FB54
:10068800F3F07047064BB3FBF0F3D068C0F30620D5
:1006980000FB03F0EDE700BF001002400024F40067
:1006A80000366E01002800F0548270B582B004460E
:1006B800036813F0010F37D0B44A936803F00C03B2
:1006C800D26802F003020C2B23D0082B23D06368D6
:1006D800B3F5803F4ED0B3F5A02F51D0AB4B1A687D
:1006E80022F480321A601A6822F480221A60636841
:1006F800002B52D0FFF7CEFD0546A44B1B6813F420
:10070800003F11D1FFF7C6FD401B6428F5D903202F
:1007180028E2032AD9D19D4B1B6813F4003F03D06C
:100728006368002B00F01782236813F0020F5DD076
:10073800964A936803F00C03D26802F003020C2B6C
:100748003AD0042B3AD0E368002B75D08F4A13684F
:1007580043F480731360FFF79DFD05468B4B1B68C0
:1007680013F4806F5FD1FFF795FD401B0228F5D980
:100778000320F7E1854A136843F480331360B6E732
:1007880003F18043A3F53C331A6842F480221A60CF
:100798001A6842F480321A60A9E7FFF77BFD054624
:1007A8007A4B1B6813F4003FBED0FFF773FD401B64
:1007B8006428F5D90320D5E1022AC2D1734B1B68FE
:1007C80013F4806F03D0E368002B00F0C6816F4AF2
:1007D800536823F0FE43216943EA016353606C4B7D
:1007E8001868FFF715FD002840F0B981236813F059
:1007F800080F4CD063699BB3644AD2F8943043F035
:100808000103C2F89430FFF745FD05465F4BD3F866
:10081800943013F0020F3AD1FFF73CFD401B022839
:10082800F4D903209EE1594A536823F0FE43216915
:1008380043EA01635360D9E7544A136823F4807389
:100848001360FFF727FD0546504B1B6813F4806FB4
:10085800CCD0FFF71FFD401B0228F5D9032081E10A
:100868004A4AD2F8943023F00103C2F89430FFF7D3
:1008780011FD0546454BD3F8943013F0020F06D00E
:10088800FFF708FD401B0228F4D903206AE123681A
:1008980013F0040F00F081803C4B9B6D13F0805FD8
:1008A80036D13A4B9A6D42F080529A659B6D03F0AF
:1008B80080530193019B0125364B1B6813F4807FFD
:1008C80028D0A368012B39D0052B3FD02F4BD3F864
:1008D800902022F00102C3F89020D3F8902022F053
:1008E8000402C3F89020A368002B3DD0FFF7D2FC88
:1008F8000646264BD3F8903013F0020F4CD1FFF781
:10090800C9FC801B41F288339842F2D9032029E1BF
:100918000025D1E71F4A136843F480731360FFF77B
:10092800B9FC06461B4B1B6813F4807FC9D1FFF73F
:10093800B1FC801B0228F5D9032013E1134AD2F831
:10094800903043F00103C2F89030CCE70F4BD3F856
:10095800902042F00402C3F89020D3F8902042F08F
:100968000102C3F89020BEE7FFF794FC0646074B48
:10097800D3F8903013F0020F0ED0FFF78BFC801BDA
:1009880041F288339842F2D90320EBE0001002408C
:100998000400002000700040E5B9236813F0200F20
:1009A80035D0A369E3B1774AD2F8983043F0010310
:1009B800C2F89830FFF76EFC0546724BD3F89830B2
:1009C80013F0020F23D1FFF765FC401B0228F4D96E
:1009D8000320C7E06B4A936D23F080539365DCE7EF
:1009E800684AD2F8983023F00103C2F89830FFF72C
:1009F80051FC0546634BD3F8983013F0020F06D02C
:100A0800FFF748FC401B0228F4D90320AAE0E36959
:100A1800002B00F0A6805B4A926802F00C020C2AB8
:100A280069D0022B1DD0574B1A6822F080721A60C9
:100A3800DA6822F00302DA60DA6822F0887222F4B7
:100A48008032DA60FFF726FC04464E4B1B6813F031
:100A5800007F4ED0FFF71EFC001B0228F5D90320AB
:100A680080E0484A136823F080731360FFF712FC94
:100A78000546444B1B6813F0007F06D0FFF70AFCBD
:100A8800401B0228F5D903206CE03E4AD3683E4952
:100A98001940236A606A013843EA0013A06A43EAEE
:100AA8000023206B4008013843EA4053606B40083C
:100AB800013843EA4063E06A43EAC0630B43D3600A
:100AC800136843F080731360D36843F08073D36076
:100AD800FFF7E0FB04462B4B1B6813F0007F06D1A1
:100AE800FFF7D8FB001B0228F5D903203AE00020C5
:100AF80038E0002036E0012B36D0224BDB6803F0CB
:100B08000301226A914231D103F0F002616A01398E
:100B1800B2EB011F2CD103F4FE42A16AB2EB012F04
:100B280028D103F07842E16AB2EBC16F24D103F413
:100B3800C001226B5208013AB1EB425F1ED103F0AB
:100B4800C063626B5208013AB3EB426F18D10020C0
:100B580008E001207047012004E0012002E00120A4
:100B680000E0002002B070BD0120FBE70120F9E79A
:100B78000120F7E70120F5E70120F3E70120F1E77D
:100B88000120EFE7001002400C809F011E4B9B687C
:100B980003F00C03042B32D01B4B9B6803F00C03AF
:100BA800082B2ED0184B9B6803F00C030C2B01D09C
:100BB80000207047144AD36803F00303D068C0F3D9
:100BC80003100130032B11D0104BB3FBF0F30E4A86
:100BD800D068C0F3062000FB03F00B4BDB68C3F3BF
:100BE800416301335B00B0FBF3F07047084BB3FB84
:100BF800F0F3D068C0F3062000FB03F0EDE70348EC
:100C080070470348704700BF001002400024F400FA
:100C180000366E01002800F0E680F8B50C4605465F
:100C2800744B1B6803F00F038B420BD2714A136895
:100C380023F00F030B431360136803F00F038B4279
:100C480040F0D3802E6816F001065FD06B68032B46
:100C580015D0022B33D0684B1B6813F4806F00F05B
:100C6800C680FFF793FF654B984233D9624A936871
:100C780023F0F00343F08003936080262BE05E4B63
:100C88001B6813F0007F01D101208BE0FFF7DEFC29
:100C98005A4B98421AD9584B9B6813F0F00F05D05D
:100CA8002E6816F0020616D0AB688BB9524A9368C4
:100CB80023F0F00343F08003936080260BE04E4B53
:100CC8001B6813F4003FCCD101206BE0002602E042
:100CD800002600E00026484A936823F00303696869
:100CE8000B439360FFF7D6FA0746434B9B6803F024
:100CF8000C036A68B3EB820F08D0FFF7CBFAC01B6E
:100D080041F288339842F0D903204BE02B6813F066
:100D1800020F48D013F0040F04D0374A936843F405
:100D2800E06393602B6813F0080F06D0324A93688B
:100D380023F47C5343F4E06393602F4A936823F0D1
:100D4800F003A9680B4393602A4B1B6803F00F0359
:100D5800A34230D82B6813F0040F06D0264A9368B4
:100D680023F4E063E9680B4393602B6813F0080FE2
:100D780007D0214A936823F46053296943EAC103E1
:100D88009360FFF703FF1C4B9B68C3F303131C4AD4
:100D9800D35C03F01F03D8401A4B18601A4B18682D
:100DA800FFF736FAF8BD802ECED1134A936823F0A8
:100DB800F0039360C8E70F4A136823F00F03234337
:100DC8001360FFF767FA06460A4B1B6803F00F0328
:100DD800A342BFD0FFF75EFA801B41F288339842E6
:100DE800F2D90320DEE7012070470120DAE701206D
:100DF800D8E700BF002002400010024000B4C4043D
:100E080038150008080000200400002090F83D3044
:100E1800DBB2012B32D1022380F83D300268D3685F
:100E280043F00103D3600368174A934218D0B3F123
:100E3800804F15D0A2F59432934211D002F580620A
:100E480093420DD002F59632934209D002F54062E2
:100E5800934205D01A6842F001021A6000207047D8
:100E680099680A4A0A40062A0AD0B2F5803F09D092
:100E78001A6842F001021A6000207047012070478A
:100E88000020704700207047002C01400700010037
:100E9800704770477047704710B5044603681A6971
:100EA80012F0020F12D0DA6812F0020F0ED06FF0B3
:100EB80002021A610123037703689B6913F0030F89
:100EC80000F09F80FFF7E5FF0023237723681A6966
:100ED80012F0040F13D0DA6812F0040F0FD06FF07D
:100EE80004021A610223237723689B6913F4407F65
:100EF80000F08D802046FFF7CCFF0023237723687E
:100F08001A6912F0080F12D0DA6812F0080F0ED022
:100F18006FF008021A61042323772368DB6913F052
:100F2800030F7BD02046FFF7B4FF00232377236805
:100F38001A6912F0100F12D0DA6812F0100F0ED0E2
:100F48006FF010021A61082323772368DB6913F412
:100F5800407F6AD02046FFF79CFF00232377236851
:100F68001A6912F0010F03D0DA6812F0010F63D189
:100F780023681A6912F0800F03D0DA6812F0800F24
:100F880061D123681A6912F4807F03D0DA6812F0FD
:100F9800800F5FD123681A6912F0400F03D0DA6816
:100FA80012F0400F5DD123681A6912F0200F03D0A8
:100FB800DA6812F0200F5BD123681A6912F4801FD7
:100FC80003D0DA6812F4801F59D123681A6912F421
:100FD800001F03D0DA6812F4001F57D123681A697A
:100FE80012F4800F03D0DA6812F4800F55D1236809
:100FF8001A6912F4000F03D0DA6812F4000F53D103
:1010080010BDFFF745FF2046FFF744FF5CE7204689
:10101800FFF73EFF2046FFF73DFF6EE72046FFF74C
:1010280037FF2046FFF736FF7FE72046FFF730FF00
:101038002046FFF72FFF90E76FF001021A61204664
:1010480000F00AF994E76FF080021A61204600F078
:10105800C0F896E76FF480721A61204600F0BAF87B
:1010680098E76FF040021A612046FFF714FF9AE7ED
:101078006FF020021A61204600F0AAF89CE76FF48E
:1010880080121A61204600F0A6F89EE76FF400125D
:101098001A61204600F0A0F8A0E76FF480021A61F8
:1010A800204600F09AF8A2E76FF400021A61204681
:1010B80000F094F8A4E7000003682C4A90420ED090
:1010C800B0F1804F0BD0A2F59432904207D002F5D0
:1010D8008062904203D002F59632904203D123F009
:1010E80070034A681343214A90421AD0B0F1804FE6
:1010F80017D0A2F59432904213D002F58062904244
:101108000FD002F5963290420BD002F54062904221
:1011180007D002F58062904203D002F580629042C7
:1011280003D123F44073CA68134323F080034A6948
:10113800134303608B68C3620B6883620B4B98424E
:101148000FD003F5006398420BD003F54063984233
:1011580007D003F58063984203D003F58063984273
:1011680001D10B690363012343617047002C0140DF
:1011780060B310B5044690F83D3013B3022384F8E9
:101188003D30214651F8040BFFF796FF012384F800
:10119800483084F83E3084F83F3084F8403084F892
:1011A800413084F8423084F8433084F8443084F87D
:1011B800453084F8463084F8473084F83D300020C4
:1011C80010BD80F83C3000F0F9F8D7E701207047EF
:1011D8007047704770477047704770477047000006
:1011E80010B588B0002403940494059406940794D9
:1011F800184BDA6C42F02002DA64DA6C02F0200252
:101208000192019ADA6C42F00102DA64DB6C03F0B5
:1012180001030293029B22464FF480714FF09040E5
:10122800FFF781F94FF48073039301230493059426
:10123800069403A94FF09040FFF79CF84FF4007311
:1012480003930494059403A94FF09040FFF792F894
:1012580008B010BD0010024008B5144B834200D0FE
:1012680008BD4FF400714FF09040FFF755F970B981
:101278000F4A13780133DBB2137000215170042B2D
:10128800EED90C4B19700A4B06221A70E8E7084A87
:1012980053780133DBB25370042BE1D9054B01229B
:1012A8001A70034B06225A70DAE700BF3400002098
:1012B800280000203000002072B6FEE708B50A4872
:1012C8000A4B036041F2BF2343600023836040F26E
:1012D800E732C260036143618361FFF749FF00B9E8
:1012E80008BDFFF7E9FF00BF3400002000440140BB
:1012F80000B595B03822002106A800F005F90023B2
:10130800019302930393049305934FF40070FFF73E
:101318000FF9012306934FF48033079302230D93AB
:1013280003220E920F920C22109211931293139390
:1013380006A8FFF7B7F978B90F230193032302939F
:101348000023039304930593012101A8FFF762FC8E
:1013580020B915B05DF804FBFFF7AEFFFFF7ACFF4F
:1013680008B5FEF77BFFFFF7C3FFFFF739FFFFF76D
:10137800A5FF0348FFF74AFD00F060F8FEE700BF4D
:101388003400002000B583B00B4B1A6E42F0010206
:101398001A661A6E02F001020092009A9A6D42F0E3
:1013A80080529A659B6D03F080530193019BFFF770
:1013B80045F903B05DF804FB0010024002680E4BCB
:1013C8009A4200D0704700B583B003F54C431A6EBB
:1013D80042F400321A661B6E03F400330193019B3A
:1013E800002211461920FEF76DFF1920FEF79EFF17
:1013F80003B05DF804FB00BF00440140FEE7FEE7D0
:10140800FEE770477047704708B5FEF737FF08BD1D
:1014180008B50248FFF740FD08BD00BF34000020B2
:10142800054BD3F8882042F47002C3F888204FF0A7
:1014380000629A60704700BF00ED00E008B506E062
:1014480000224FF480714FF09040FFF76CF8064B84
:101458001B78002BF4D101224FF480714FF090409B
:10146800FFF761F8F3E700BF300000200D4885461C
:101478000D480E490E4A002302E0D458C4500433E4
:10148800C4188C42F9D30B4A0B4C002301E01360BB
:101498000432A242FBD3FFF7C3FF00F011F8FFF7B5
:1014A8005FFFFEE700800020000000200C00002005
:1014B800581500080C00002080000020FEE70000FE
:1014C80070B50D4D0D4C641BA4100026A64209D121
:1014D8000B4D0C4C00F020F8641BA4100026A6420B
:1014E80005D170BD55F8043B98470136EEE755F82D
:1014F800043B98470136F2E75015000850150008DC
:10150800501500085415000802440346934200D1C0
:10151800704703F8011BF9E7F8B500BFF8BC08BC31
:101528009E467047F8B500BFF8BC08BC9E46704799
:10153800000000000000000001020304060708097B
:08154800000000000102030491
:04155000FD01000891
:04155400D9010008B1
:0C15580001000000100000000024F4005E
:040000050800147566
:00000001FF
